{
  "contractName": "Trade",
  "abi": [
    {
      "inputs": [
        {
          "internalType": "contract Home",
          "name": "_home",
          "type": "address"
        }
      ],
      "payable": false,
      "stateMutability": "nonpayable",
      "type": "constructor"
    },
    {
      "constant": true,
      "inputs": [],
      "name": "home",
      "outputs": [
        {
          "internalType": "contract Home",
          "name": "",
          "type": "address"
        }
      ],
      "payable": false,
      "stateMutability": "view",
      "type": "function"
    },
    {
      "constant": true,
      "inputs": [
        {
          "internalType": "uint256",
          "name": "",
          "type": "uint256"
        }
      ],
      "name": "homeList",
      "outputs": [
        {
          "internalType": "bool",
          "name": "forSell",
          "type": "bool"
        },
        {
          "internalType": "uint256",
          "name": "price",
          "type": "uint256"
        }
      ],
      "payable": false,
      "stateMutability": "view",
      "type": "function"
    },
    {
      "constant": true,
      "inputs": [],
      "name": "name",
      "outputs": [
        {
          "internalType": "string",
          "name": "",
          "type": "string"
        }
      ],
      "payable": false,
      "stateMutability": "view",
      "type": "function"
    },
    {
      "constant": false,
      "inputs": [
        {
          "internalType": "uint256",
          "name": "_id",
          "type": "uint256"
        },
        {
          "internalType": "uint256",
          "name": "_price",
          "type": "uint256"
        }
      ],
      "name": "listHome",
      "outputs": [],
      "payable": false,
      "stateMutability": "nonpayable",
      "type": "function"
    },
    {
      "constant": false,
      "inputs": [
        {
          "internalType": "uint256",
          "name": "_id",
          "type": "uint256"
        }
      ],
      "name": "buyHome",
      "outputs": [],
      "payable": true,
      "stateMutability": "payable",
      "type": "function"
    }
  ],
  "bytecode": "0x60806040526040518060400160405280600a81526020017f486f6d65207472616465000000000000000000000000000000000000000000008152506000908051906020019061004f9291906100d7565b5034801561005c57600080fd5b5060405161098b38038061098b8339818101604052602081101561007f57600080fd5b810190808051906020019092919050505080600160006101000a81548173ffffffffffffffffffffffffffffffffffffffff021916908373ffffffffffffffffffffffffffffffffffffffff1602179055505061017c565b828054600181600116156101000203166002900490600052602060002090601f016020900481019282601f1061011857805160ff1916838001178555610146565b82800160010185558215610146579182015b8281111561014557825182559160200191906001019061012a565b5b5090506101539190610157565b5090565b61017991905b8082111561017557600081600090555060010161015d565b5090565b90565b6108008061018b6000396000f3fe60806040526004361061004a5760003560e01c806306fdde031461004f578063497a175a146100df5780635437bf471461010d5780638ff9e7e4146101525780639fa92f9d146101ac575b600080fd5b34801561005b57600080fd5b50610064610203565b6040518080602001828103825283818151815260200191508051906020019080838360005b838110156100a4578082015181840152602081019050610089565b50505050905090810190601f1680156100d15780820380516001836020036101000a031916815260200191505b509250505060405180910390f35b61010b600480360360208110156100f557600080fd5b81019080803590602001909291905050506102a1565b005b34801561011957600080fd5b506101506004803603604081101561013057600080fd5b81019080803590602001909291908035906020019092919050505061062d565b005b34801561015e57600080fd5b5061018b6004803603602081101561017557600080fd5b8101908080359060200190929190505050610774565b60405180831515151581526020018281526020019250505060405180910390f35b3480156101b857600080fd5b506101c16107a5565b604051808273ffffffffffffffffffffffffffffffffffffffff1673ffffffffffffffffffffffffffffffffffffffff16815260200191505060405180910390f35b60008054600181600116156101000203166002900480601f0160208091040260200160405190810160405280929190818152602001828054600181600116156101000203166002900480156102995780601f1061026e57610100808354040283529160200191610299565b820191906000526020600020905b81548152906001019060200180831161027c57829003601f168201915b505050505081565b6000600160009054906101000a900473ffffffffffffffffffffffffffffffffffffffff1673ffffffffffffffffffffffffffffffffffffffff1663081812fc836040518263ffffffff1660e01b81526004018082815260200191505060206040518083038186803b15801561031657600080fd5b505afa15801561032a573d6000803e3d6000fd5b505050506040513d602081101561034057600080fd5b810190808051906020019092919050505090508073ffffffffffffffffffffffffffffffffffffffff163073ffffffffffffffffffffffffffffffffffffffff161461038b57600080fd5b6002600083815260200190815260200160002060000160009054906101000a900460ff166103b857600080fd5b34600260008481526020019081526020016000206001015411156103db57600080fd5b6000600160009054906101000a900473ffffffffffffffffffffffffffffffffffffffff1673ffffffffffffffffffffffffffffffffffffffff16636352211e846040518263ffffffff1660e01b81526004018082815260200191505060206040518083038186803b15801561045057600080fd5b505afa158015610464573d6000803e3d6000fd5b505050506040513d602081101561047a57600080fd5b8101908080519060200190929190505050905060008190508073ffffffffffffffffffffffffffffffffffffffff166108fc349081150290604051600060405180830381858888f193505050501580156104d8573d6000803e3d6000fd5b50600160009054906101000a900473ffffffffffffffffffffffffffffffffffffffff1673ffffffffffffffffffffffffffffffffffffffff166323b872dd8333876040518463ffffffff1660e01b8152600401808473ffffffffffffffffffffffffffffffffffffffff1673ffffffffffffffffffffffffffffffffffffffff1681526020018373ffffffffffffffffffffffffffffffffffffffff1673ffffffffffffffffffffffffffffffffffffffff1681526020018281526020019350505050600060405180830381600087803b1580156105b657600080fd5b505af11580156105ca573d6000803e3d6000fd5b50505050604051806040016040528060001515815260200160008152506002600086815260200190815260200160002060008201518160000160006101000a81548160ff0219169083151502179055506020820151816001015590505050505050565b6000600160009054906101000a900473ffffffffffffffffffffffffffffffffffffffff1673ffffffffffffffffffffffffffffffffffffffff16636352211e846040518263ffffffff1660e01b81526004018082815260200191505060206040518083038186803b1580156106a257600080fd5b505afa1580156106b6573d6000803e3d6000fd5b505050506040513d60208110156106cc57600080fd5b810190808051906020019092919050505090508073ffffffffffffffffffffffffffffffffffffffff163373ffffffffffffffffffffffffffffffffffffffff161461071757600080fd5b6040518060400160405280600115158152602001838152506002600085815260200190815260200160002060008201518160000160006101000a81548160ff02191690831515021790555060208201518160010155905050505050565b60026020528060005260406000206000915090508060000160009054906101000a900460ff16908060010154905082565b600160009054906101000a900473ffffffffffffffffffffffffffffffffffffffff168156fea265627a7a72315820a460f470b5a124eb332ecd757763908badbdc8648c58e8db7ce7bb17c693dd3864736f6c63430005100032",
  "source": "pragma solidity ^0.5.16;\r\n\r\nimport \"./Home.sol\";\r\n\r\ncontract Trade {\r\n  string public name = \"Home trade\";\r\n  Home public home;\r\n  mapping(uint => Item) public homeList;\r\n  \r\n  struct Item {\r\n        bool forSell;\r\n        uint256 price;\r\n    }\r\n  \r\n  constructor(Home _home) public {\r\n    home = _home;\r\n  }\r\n  \r\n  function listHome(uint _id, uint256 _price) public {\r\n    address _owner = home.ownerOf(_id);\r\n    require(msg.sender == _owner);\r\n    homeList[_id] = Item(true,_price);\r\n  }\r\n  \r\n  function buyHome(uint _id) public payable{\r\n     address _approved = home.getApproved(_id);\r\n     require(address(this) == _approved);\r\n     require(homeList[_id].forSell);\r\n     require(homeList[_id].price <= msg.value);\r\n     address _owner = home.ownerOf(_id);\r\n     address payable wallet = address(uint160(_owner));\r\n     wallet.transfer(msg.value);\r\n     home.transferFrom( _owner, msg.sender, _id);\r\n     homeList[_id] = Item(false,0);\r\n  }\r\n\r\n}",
  "sourcePath": "C:/Users/Dhaval/eth/homechain/src/contracts/Trade.sol",
  "compiler": {
    "name": "solc",
    "version": "0.5.16+commit.9c3226ce.Emscripten.clang"
  },
  "schemaVersion": "3.2.3",
  "updatedAt": "2021-01-07T14:40:53.315Z",
  "networkType": "ethereum",
  "devdoc": {
    "methods": {}
  },
  "userdoc": {
    "methods": {}
  }
}